{
  "contractName": "Election",
  "abi": [
    {
      "inputs": [],
      "payable": false,
      "stateMutability": "nonpayable",
      "type": "constructor"
    },
    {
      "anonymous": false,
      "inputs": [
        {
          "indexed": true,
          "internalType": "uint256",
          "name": "_candidateId",
          "type": "uint256"
        }
      ],
      "name": "votedEvent",
      "type": "event"
    },
    {
      "constant": true,
      "inputs": [
        {
          "internalType": "uint256",
          "name": "",
          "type": "uint256"
        }
      ],
      "name": "addressLUT",
      "outputs": [
        {
          "internalType": "address",
          "name": "",
          "type": "address"
        }
      ],
      "payable": false,
      "stateMutability": "view",
      "type": "function"
    },
    {
      "constant": true,
      "inputs": [
        {
          "internalType": "uint256",
          "name": "",
          "type": "uint256"
        }
      ],
      "name": "candidates",
      "outputs": [
        {
          "internalType": "uint256",
          "name": "id",
          "type": "uint256"
        },
        {
          "internalType": "string",
          "name": "name",
          "type": "string"
        },
        {
          "internalType": "uint256",
          "name": "voteCount",
          "type": "uint256"
        }
      ],
      "payable": false,
      "stateMutability": "view",
      "type": "function"
    },
    {
      "constant": true,
      "inputs": [],
      "name": "candidatesCount",
      "outputs": [
        {
          "internalType": "uint256",
          "name": "",
          "type": "uint256"
        }
      ],
      "payable": false,
      "stateMutability": "view",
      "type": "function"
    },
    {
      "constant": true,
      "inputs": [
        {
          "internalType": "uint256",
          "name": "",
          "type": "uint256"
        }
      ],
      "name": "questionaryCounters",
      "outputs": [
        {
          "internalType": "int256",
          "name": "",
          "type": "int256"
        }
      ],
      "payable": false,
      "stateMutability": "view",
      "type": "function"
    },
    {
      "constant": true,
      "inputs": [],
      "name": "token",
      "outputs": [
        {
          "internalType": "contract ElectionToken",
          "name": "",
          "type": "address"
        }
      ],
      "payable": false,
      "stateMutability": "view",
      "type": "function"
    },
    {
      "constant": true,
      "inputs": [
        {
          "internalType": "address",
          "name": "",
          "type": "address"
        }
      ],
      "name": "voters",
      "outputs": [
        {
          "internalType": "bool",
          "name": "",
          "type": "bool"
        }
      ],
      "payable": false,
      "stateMutability": "view",
      "type": "function"
    },
    {
      "constant": false,
      "inputs": [
        {
          "internalType": "string",
          "name": "_name",
          "type": "string"
        }
      ],
      "name": "addCandidate",
      "outputs": [
        {
          "internalType": "bool",
          "name": "",
          "type": "bool"
        }
      ],
      "payable": false,
      "stateMutability": "nonpayable",
      "type": "function"
    },
    {
      "constant": false,
      "inputs": [
        {
          "internalType": "uint256",
          "name": "_candidateId",
          "type": "uint256"
        }
      ],
      "name": "vote",
      "outputs": [],
      "payable": false,
      "stateMutability": "nonpayable",
      "type": "function"
    },
    {
      "constant": false,
      "inputs": [],
      "name": "getAddressBook",
      "outputs": [
        {
          "internalType": "address[]",
          "name": "",
          "type": "address[]"
        }
      ],
      "payable": false,
      "stateMutability": "nonpayable",
      "type": "function"
    },
    {
      "constant": false,
      "inputs": [],
      "name": "size",
      "outputs": [
        {
          "internalType": "uint256",
          "name": "",
          "type": "uint256"
        }
      ],
      "payable": false,
      "stateMutability": "nonpayable",
      "type": "function"
    },
    {
      "constant": false,
      "inputs": [
        {
          "internalType": "int256[]",
          "name": "counters",
          "type": "int256[]"
        }
      ],
      "name": "storeCounts",
      "outputs": [],
      "payable": false,
      "stateMutability": "nonpayable",
      "type": "function"
    }
  ],
  "bytecode": "0x6080604052604051806101600160405280600060ff168152602001600060ff168152602001600060ff168152602001600060ff168152602001600060ff168152602001600060ff168152602001600060ff168152602001600060ff168152602001600060ff168152602001600060ff168152602001600060ff16815250600090600b6200008e929190620006ed565b506040518060400160405280601481526020017f41707220342c20323032312031353a31373a323500000000000000000000000081525060069080519060200190620000dc92919062000744565b50348015620000ea57600080fd5b50620001316040518060400160405280600481526020017f4269626900000000000000000000000000000000000000000000000000000000815250620005fe60201b60201c565b50620001786040518060400160405280600581526020017f47616e747a000000000000000000000000000000000000000000000000000000815250620005fe60201b60201c565b50620001bf6040518060400160405280600681526020017f42656e6e65740000000000000000000000000000000000000000000000000000815250620005fe60201b60201c565b506200022c60026040518080620013dc602a9139602a019050602060405180830381855afa158015620001f6573d6000803e3d6000fd5b5050506040513d60208110156200020c57600080fd5b810190808051906020019092919050505060601c6200068460201b60201c565b62000298600260405180806200130a602a9139602a019050602060405180830381855afa15801562000262573d6000803e3d6000fd5b5050506040513d60208110156200027857600080fd5b810190808051906020019092919050505060601c6200068460201b60201c565b620003046002604051808062001406602a9139602a019050602060405180830381855afa158015620002ce573d6000803e3d6000fd5b5050506040513d6020811015620002e457600080fd5b810190808051906020019092919050505060601c6200068460201b60201c565b620003706002604051808062001430602a9139602a019050602060405180830381855afa1580156200033a573d6000803e3d6000fd5b5050506040513d60208110156200035057600080fd5b810190808051906020019092919050505060601c6200068460201b60201c565b620003dc600260405180806200135e602a9139602a019050602060405180830381855afa158015620003a6573d6000803e3d6000fd5b5050506040513d6020811015620003bc57600080fd5b810190808051906020019092919050505060601c6200068460201b60201c565b620004486002604051808062001334602a9139602a019050602060405180830381855afa15801562000412573d6000803e3d6000fd5b5050506040513d60208110156200042857600080fd5b810190808051906020019092919050505060601c6200068460201b60201c565b620004b460026040518080620013b2602a9139602a019050602060405180830381855afa1580156200047e573d6000803e3d6000fd5b5050506040513d60208110156200049457600080fd5b810190808051906020019092919050505060601c6200068460201b60201c565b620005206002604051808062001388602a9139602a019050602060405180830381855afa158015620004ea573d6000803e3d6000fd5b5050506040513d60208110156200050057600080fd5b810190808051906020019092919050505060601c6200068460201b60201c565b6200058c600260405180806200145a602a9139602a019050602060405180830381855afa15801562000556573d6000803e3d6000fd5b5050506040513d60208110156200056c57600080fd5b810190808051906020019092919050505060601c6200068460201b60201c565b620005f860026040518080620012e0602a9139602a019050602060405180830381855afa158015620005c2573d6000803e3d6000fd5b5050506040513d6020811015620005d857600080fd5b810190808051906020019092919050505060601c6200068460201b60201c565b620008a2565b60006004600081548092919060010191905055506040518060600160405280600454815260200183815260200160008152506003600060045481526020019081526020016000206000820151816000015560208201518160010190805190602001906200066d929190620007cb565b506040820151816002015590505060019050919050565b60028190806001815401808255809150509060018203906000526020600020016000909192909190916101000a81548173ffffffffffffffffffffffffffffffffffffffff021916908373ffffffffffffffffffffffffffffffffffffffff1602179055505050565b82805482825590600052602060002090810192821562000731579160200282015b8281111562000730578251829060ff169055916020019190600101906200070e565b5b50905062000740919062000852565b5090565b828054600181600116156101000203166002900490600052602060002090601f016020900481019282601f106200078757805160ff1916838001178555620007b8565b82800160010185558215620007b8579182015b82811115620007b75782518255916020019190600101906200079a565b5b509050620007c791906200087a565b5090565b828054600181600116156101000203166002900490600052602060002090601f016020900481019282601f106200080e57805160ff19168380011785556200083f565b828001600101855582156200083f579182015b828111156200083e57825182559160200191906001019062000821565b5b5090506200084e91906200087a565b5090565b6200087791905b808211156200087357600081600090555060010162000859565b5090565b90565b6200089f91905b808211156200089b57600081600090555060010162000881565b5090565b90565b610a2e80620008b26000396000f3fe608060405234801561001057600080fd5b50600436106100a95760003560e01c8063949d225d11610071578063949d225d146102e1578063a3ec138d146102ff578063aca490181461035b578063e4d02f55146103c9578063e575730814610481578063fc0c546a146104c3576100a9565b80630121b93f146100ae5780632d35a8a2146100dc5780633477ee2e146100fa5780633c6e7161146101af578063462e91ec1461020e575b600080fd5b6100da600480360360208110156100c457600080fd5b810190808035906020019092919050505061050d565b005b6100e461063e565b6040518082815260200191505060405180910390f35b6101266004803603602081101561011057600080fd5b8101908080359060200190929190505050610644565b6040518084815260200180602001838152602001828103825284818151815260200191508051906020019080838360005b83811015610172578082015181840152602081019050610157565b50505050905090810190601f16801561019f5780820380516001836020036101000a031916815260200191505b5094505050505060405180910390f35b6101b7610706565b6040518080602001828103825283818151815260200191508051906020019060200280838360005b838110156101fa5780820151818401526020810190506101df565b505050509050019250505060405180910390f35b6102c76004803603602081101561022457600080fd5b810190808035906020019064010000000081111561024157600080fd5b82018360208201111561025357600080fd5b8035906020019184600183028401116401000000008311171561027557600080fd5b91908080601f016020809104026020016040519081016040528093929190818152602001838380828437600081840152601f19601f820116905080830192505050505050509192919290505050610794565b604051808215151515815260200191505060405180910390f35b6102e9610818565b6040518082815260200191505060405180910390f35b6103416004803603602081101561031557600080fd5b81019080803573ffffffffffffffffffffffffffffffffffffffff169060200190929190505050610825565b604051808215151515815260200191505060405180910390f35b6103876004803603602081101561037157600080fd5b8101908080359060200190929190505050610845565b604051808273ffffffffffffffffffffffffffffffffffffffff1673ffffffffffffffffffffffffffffffffffffffff16815260200191505060405180910390f35b61047f600480360360208110156103df57600080fd5b81019080803590602001906401000000008111156103fc57600080fd5b82018360208201111561040e57600080fd5b8035906020019184602083028401116401000000008311171561043057600080fd5b919080806020026020016040519081016040528093929190818152602001838360200280828437600081840152601f19601f820116905080830192505050505050509192919290505050610881565b005b6104ad6004803603602081101561049757600080fd5b810190808035906020019092919050505061089b565b6040518082815260200191505060405180910390f35b6104cb6108bc565b604051808273ffffffffffffffffffffffffffffffffffffffff1673ffffffffffffffffffffffffffffffffffffffff16815260200191505060405180910390f35b600160003373ffffffffffffffffffffffffffffffffffffffff1673ffffffffffffffffffffffffffffffffffffffff16815260200190815260200160002060009054906101000a900460ff161561056457600080fd5b42640ed77a9870101561057657600080fd5b60008111801561058857506004548111155b61059157600080fd5b60018060003373ffffffffffffffffffffffffffffffffffffffff1673ffffffffffffffffffffffffffffffffffffffff16815260200190815260200160002060006101000a81548160ff0219169083151502179055506003600082815260200190815260200160002060020160008154809291906001019190505550807ffff3c900d938d21d0990d786e819f29b8d05c1ef587b462b939609625b684b1660405160405180910390a250565b60045481565b6003602052806000526040600020600091509050806000015490806001018054600181600116156101000203166002900480601f0160208091040260200160405190810160405280929190818152602001828054600181600116156101000203166002900480156106f65780601f106106cb576101008083540402835291602001916106f6565b820191906000526020600020905b8154815290600101906020018083116106d957829003601f168201915b5050505050908060020154905083565b6060600280548060200260200160405190810160405280929190818152602001828054801561078a57602002820191906000526020600020905b8160009054906101000a900473ffffffffffffffffffffffffffffffffffffffff1673ffffffffffffffffffffffffffffffffffffffff1681526020019060010190808311610740575b5050505050905090565b60006004600081548092919060010191905055506040518060600160405280600454815260200183815260200160008152506003600060045481526020019081526020016000206000820151816000015560208201518160010190805190602001906108019291906108e2565b506040820151816002015590505060019050919050565b6000600280549050905090565b60016020528060005260406000206000915054906101000a900460ff1681565b6002818154811061085257fe5b906000526020600020016000915054906101000a900473ffffffffffffffffffffffffffffffffffffffff1681565b8060009080519060200190610897929190610962565b5050565b600081815481106108a857fe5b906000526020600020016000915090505481565b600560009054906101000a900473ffffffffffffffffffffffffffffffffffffffff1681565b828054600181600116156101000203166002900490600052602060002090601f016020900481019282601f1061092357805160ff1916838001178555610951565b82800160010185558215610951579182015b82811115610950578251825591602001919060010190610935565b5b50905061095e91906109af565b5090565b82805482825590600052602060002090810192821561099e579160200282015b8281111561099d578251825591602001919060010190610982565b5b5090506109ab91906109d4565b5090565b6109d191905b808211156109cd5760008160009055506001016109b5565b5090565b90565b6109f691905b808211156109f25760008160009055506001016109da565b5090565b9056fea265627a7a72315820e1d7bed0aee6c7b4978c90dec8afff469517f112901c13d03e064f300f0f009864736f6c63430005100032307835363566623435433244323532666137373046336164374234316435616565663246666637303246307836353346353430383844386144304645664339333134303342653732644638423666364446383034307845364243356137324238313438653232414238443335333342624644313237343639356544433739307830333245333534373635416631333539653665633737393037456138413941364538323066323230307833334165344446466466353237343343644638303934324562343365353341366639363744313331307833386141464637353835373265423445306462423137314336653262633136664533393061633230307830346436634531353863343134343032414143383133353536334642334643613336383838323244307831443343346666373065343030433037346663333935433532333543384136614539356235303631307864343434643232344442353339323145373035423630633936326135643832363537364666396535307836353762413430386266653145363137393830386461333741306230343032363932443863653337",
  "source": "pragma  solidity >=0.4.21;\r\nimport \"./ElectionToken.sol\";\r\n\r\ncontract Election {\r\n\r\n    // Model a Candidate\r\n    struct Candidate {\r\n        uint id;\r\n        string name;\r\n        uint voteCount;\r\n    }\r\n\r\n    struct Voter {\r\n        address voterAddress;\r\n        bool hasVoted;\r\n    }\r\n\r\n    int[] public questionaryCounters = [0,0,0,0,0,0,0,0,0,0,0];\r\n\r\n    // Store accounts that have voted\r\n    mapping(address => bool) public voters;\r\n    address[] public addressLUT;\r\n\r\n    // Store Candidates\r\n    // Fetch Candidate\r\n    mapping(uint => Candidate) public candidates;\r\n    // Store Candidates Count\r\n    uint public candidatesCount;\r\n\r\n    ElectionToken public token;\r\n\r\n    string private countDownDate = \"Apr 4, 2021 15:17:25\";\r\n\r\n    // voted event\r\n    event votedEvent (\r\n        uint indexed _candidateId\r\n    );\r\n\r\n    // Constructor\r\n    constructor () public {\r\n        addCandidate(\"Bibi\");\r\n        addCandidate(\"Gantz\");\r\n        addCandidate(\"Bennet\");\r\n\r\n        addVoter(address(bytes20(sha256(\"0x04d6cE158c414402AAC8135563FB3FCa3688822D\"))));\r\n        addVoter(address(bytes20(sha256(\"0x653F54088D8aD0FEfC931403Be72dF8B6f6DF804\"))));\r\n        addVoter(address(bytes20(sha256(\"0x1D3C4ff70e400C074fc395C5235C8A6aE95b5061\"))));\r\n        addVoter(address(bytes20(sha256(\"0xd444d224DB53921E705B60c962a5d826576Ff9e5\"))));\r\n        addVoter(address(bytes20(sha256(\"0x032E354765Af1359e6ec77907Ea8A9A6E820f220\"))));\r\n        addVoter(address(bytes20(sha256(\"0xE6BC5a72B8148e22AB8D3533BbFD1274695eDC79\"))));\r\n        addVoter(address(bytes20(sha256(\"0x38aAFF758572eB4E0dbB171C6e2bc16fE390ac20\"))));\r\n        addVoter(address(bytes20(sha256(\"0x33Ae4DFFdf52743CdF80942Eb43e53A6f967D131\"))));\r\n        addVoter(address(bytes20(sha256(\"0x657bA408bfe1E6179808da37A0b0402692D8ce37\"))));\r\n        addVoter(address(bytes20(sha256(\"0x565fb45C2D252fa770F3ad7B41d5aeef2Fff702F\"))));\r\n\r\n    }\r\n\r\n    function addCandidate (string memory _name) public returns (bool) {\r\n        candidatesCount++;\r\n        candidates[candidatesCount] = Candidate(candidatesCount, _name,0);\r\n        return true;\r\n    }\r\n\r\n    function vote (uint _candidateId) public {\r\n        // require that they haven't voted before\r\n        \r\n        // require(!voters[msg.sender].hasVoted);\r\n        require(!voters[msg.sender]);\r\n\r\n        // require that they haven't voted before\r\n        // require(voters[msg.sender].voterAddress != address(0));\r\n\r\n        // require that they voted in allowed time\r\n\r\n        require(((2021 * 365 * 1 days) + (120 * 1 days) + (15 * 1 hours) ) >= now );\r\n\r\n        // require a valid candidate\r\n        require(_candidateId > 0 && _candidateId <= candidatesCount);\r\n\r\n        // record that voter has voted\r\n        // voters[msg.sender].hasVoted = true;\r\n        voters[msg.sender] = true;\r\n\r\n        // update candidate vote Count\r\n        candidates[_candidateId].voteCount ++;\r\n\r\n        // trigger voted event\r\n        emit votedEvent(_candidateId);\r\n    }\r\n\r\n    function getAddressBook() public returns (address[] memory) {\r\n        return addressLUT;\r\n    }\r\n\r\n    function size() public returns (uint) {\r\n        return addressLUT.length;\r\n    }\r\n\r\n    function addVoter(address addr) private {\r\n        // voters[addr].hasVoted = false;\r\n        // voters[addr] = false;\r\n        // voters[addr] = Voter(addr,false);\r\n        addressLUT.push(addr);\r\n    }\r\n\r\n    function storeCounts(int[] memory counters) public {\r\n        questionaryCounters = counters;\r\n    }\r\n}",
  "sourcePath": "C:\\Dev\\blockChain-election\\contracts\\Election.sol",
  "compiler": {
    "name": "solc",
    "version": "0.5.16+commit.9c3226ce.Emscripten.clang"
  },
  "schemaVersion": "3.0.23",
  "updatedAt": "2020-04-16T19:20:10.100Z",
  "networkType": "ethereum",
  "devdoc": {
    "methods": {}
  },
  "userdoc": {
    "methods": {}
  }
}