{
  "contractName": "Election",
  "abi": [
    {
      "inputs": [],
      "payable": false,
      "stateMutability": "nonpayable",
      "type": "constructor"
    },
    {
      "anonymous": false,
      "inputs": [
        {
          "indexed": true,
          "internalType": "uint256",
          "name": "_candidateId",
          "type": "uint256"
        }
      ],
      "name": "votedEvent",
      "type": "event"
    },
    {
      "constant": true,
      "inputs": [
        {
          "internalType": "uint256",
          "name": "",
          "type": "uint256"
        }
      ],
      "name": "candidates",
      "outputs": [
        {
          "internalType": "uint256",
          "name": "id",
          "type": "uint256"
        },
        {
          "internalType": "string",
          "name": "name",
          "type": "string"
        },
        {
          "internalType": "uint256",
          "name": "voteCount",
          "type": "uint256"
        }
      ],
      "payable": false,
      "stateMutability": "view",
      "type": "function"
    },
    {
      "constant": true,
      "inputs": [],
      "name": "candidatesCount",
      "outputs": [
        {
          "internalType": "uint256",
          "name": "",
          "type": "uint256"
        }
      ],
      "payable": false,
      "stateMutability": "view",
      "type": "function"
    },
    {
      "constant": true,
      "inputs": [
        {
          "internalType": "address",
          "name": "",
          "type": "address"
        }
      ],
      "name": "voters",
      "outputs": [
        {
          "internalType": "bool",
          "name": "",
          "type": "bool"
        }
      ],
      "payable": false,
      "stateMutability": "view",
      "type": "function"
    },
    {
      "constant": false,
      "inputs": [
        {
          "internalType": "string",
          "name": "_name",
          "type": "string"
        }
      ],
      "name": "addCandidate",
      "outputs": [
        {
          "internalType": "bool",
          "name": "",
          "type": "bool"
        }
      ],
      "payable": false,
      "stateMutability": "nonpayable",
      "type": "function"
    },
    {
      "constant": false,
      "inputs": [
        {
          "internalType": "uint256",
          "name": "_candidateId",
          "type": "uint256"
        }
      ],
      "name": "vote",
      "outputs": [],
      "payable": false,
      "stateMutability": "nonpayable",
      "type": "function"
    }
  ],
  "bytecode": "0x60806040526040518060400160405280601481526020017f41707220342c20323032312031353a31373a32350000000000000000000000008152506003908051906020019061004f9291906101b5565b5034801561005c57600080fd5b506100a16040518060400160405280600481526020017f426962690000000000000000000000000000000000000000000000000000000081525061013160201b60201c565b506100e66040518060400160405280600581526020017f47616e747a00000000000000000000000000000000000000000000000000000081525061013160201b60201c565b5061012b6040518060400160405280600681526020017f42656e6e6574000000000000000000000000000000000000000000000000000081525061013160201b60201c565b506102da565b600060026000815480929190600101919050555060405180606001604052806002548152602001838152602001600081525060016000600254815260200190815260200160002060008201518160000155602082015181600101908051906020019061019e929190610235565b506040820151816002015590505060019050919050565b828054600181600116156101000203166002900490600052602060002090601f016020900481019282601f106101f657805160ff1916838001178555610224565b82800160010185558215610224579182015b82811115610223578251825591602001919060010190610208565b5b50905061023191906102b5565b5090565b828054600181600116156101000203166002900490600052602060002090601f016020900481019282601f1061027657805160ff19168380011785556102a4565b828001600101855582156102a4579182015b828111156102a3578251825591602001919060010190610288565b5b5090506102b191906102b5565b5090565b6102d791905b808211156102d35760008160009055506001016102bb565b5090565b90565b6105f0806102e96000396000f3fe608060405234801561001057600080fd5b50600436106100575760003560e01c80630121b93f1461005c5780632d35a8a21461008a5780633477ee2e146100a8578063462e91ec1461015d578063a3ec138d14610230575b600080fd5b6100886004803603602081101561007257600080fd5b810190808035906020019092919050505061028c565b005b6100926103aa565b6040518082815260200191505060405180910390f35b6100d4600480360360208110156100be57600080fd5b81019080803590602001909291905050506103b0565b6040518084815260200180602001838152602001828103825284818151815260200191508051906020019080838360005b83811015610120578082015181840152602081019050610105565b50505050905090810190601f16801561014d5780820380516001836020036101000a031916815260200191505b5094505050505060405180910390f35b6102166004803603602081101561017357600080fd5b810190808035906020019064010000000081111561019057600080fd5b8201836020820111156101a257600080fd5b803590602001918460018302840111640100000000831117156101c457600080fd5b91908080601f016020809104026020016040519081016040528093929190818152602001838380828437600081840152601f19601f820116905080830192505050505050509192919290505050610472565b604051808215151515815260200191505060405180910390f35b6102726004803603602081101561024657600080fd5b81019080803573ffffffffffffffffffffffffffffffffffffffff1690602001909291905050506104f6565b604051808215151515815260200191505060405180910390f35b6000803373ffffffffffffffffffffffffffffffffffffffff1673ffffffffffffffffffffffffffffffffffffffff16815260200190815260200160002060009054906101000a900460ff16156102e257600080fd5b6000811180156102f457506002548111155b6102fd57600080fd5b60016000803373ffffffffffffffffffffffffffffffffffffffff1673ffffffffffffffffffffffffffffffffffffffff16815260200190815260200160002060006101000a81548160ff0219169083151502179055506001600082815260200190815260200160002060020160008154809291906001019190505550807ffff3c900d938d21d0990d786e819f29b8d05c1ef587b462b939609625b684b1660405160405180910390a250565b60025481565b6001602052806000526040600020600091509050806000015490806001018054600181600116156101000203166002900480601f0160208091040260200160405190810160405280929190818152602001828054600181600116156101000203166002900480156104625780601f1061043757610100808354040283529160200191610462565b820191906000526020600020905b81548152906001019060200180831161044557829003601f168201915b5050505050908060020154905083565b60006002600081548092919060010191905055506040518060600160405280600254815260200183815260200160008152506001600060025481526020019081526020016000206000820151816000015560208201518160010190805190602001906104df929190610516565b506040820151816002015590505060019050919050565b60006020528060005260406000206000915054906101000a900460ff1681565b828054600181600116156101000203166002900490600052602060002090601f016020900481019282601f1061055757805160ff1916838001178555610585565b82800160010185558215610585579182015b82811115610584578251825591602001919060010190610569565b5b5090506105929190610596565b5090565b6105b891905b808211156105b457600081600090555060010161059c565b5090565b9056fea265627a7a723158203bba567e1b37f5f7bfb88e420f535d2f1f44bef72c0d26d0f6f04f0a845ad78664736f6c63430005100032",
  "source": "pragma  solidity >=0.4.21;\r\nimport \"./ERC20.sol\";\r\n\r\ncontract Election {\r\n\r\n    // Model a Candidate\r\n    struct Candidate {\r\n        uint id;\r\n        string name;\r\n        uint voteCount;\r\n    }\r\n\r\n    struct Voter {\r\n        address voterAddress;\r\n        bool hasVoted;\r\n    }\r\n\r\n    // Store accounts that have voted\r\n    mapping(address => bool) public voters;\r\n    // Store Candidates\r\n    // Fetch Candidate\r\n    mapping(uint => Candidate) public candidates;\r\n    // Store Candidates Count\r\n    uint public candidatesCount;\r\n\r\n    // ElectionToken public token;\r\n\r\n    string private countDownDate = \"Apr 4, 2021 15:17:25\";\r\n\r\n    // voted event\r\n    event votedEvent (\r\n        uint indexed _candidateId\r\n    );\r\n\r\n    // Constructor\r\n    constructor () public {\r\n        addCandidate(\"Bibi\");\r\n        addCandidate(\"Gantz\");\r\n        addCandidate(\"Bennet\");\r\n\r\n        // addVoter(address(0x04d6cE158c414402AAC8135563FB3FCa3688822D));\r\n        // addVoter(address(0x653F54088D8aD0FEfC931403Be72dF8B6f6DF804));\r\n        // addVoter(address(0x1D3C4ff70e400C074fc395C5235C8A6aE95b5061));\r\n        // addVoter(address(0xd444d224DB53921E705B60c962a5d826576Ff9e5));\r\n        // addVoter(address(0x032E354765Af1359e6ec77907Ea8A9A6E820f220));\r\n        // addVoter(address(0xE6BC5a72B8148e22AB8D3533BbFD1274695eDC79));\r\n        // addVoter(address(0x38aAFF758572eB4E0dbB171C6e2bc16fE390ac20));\r\n        // addVoter(address(0x33Ae4DFFdf52743CdF80942Eb43e53A6f967D131));\r\n        // addVoter(address(0x657bA408bfe1E6179808da37A0b0402692D8ce37));\r\n        // addVoter(address(0x565fb45C2D252fa770F3ad7B41d5aeef2Fff702F));\r\n    }\r\n\r\n    function addCandidate (string memory _name) public returns (bool) {\r\n        candidatesCount++;\r\n        candidates[candidatesCount] = Candidate(candidatesCount, _name,0);\r\n        return true;\r\n    }\r\n\r\n    function vote (uint _candidateId) public {\r\n        // require that they haven't voted before\r\n        \r\n        // require(!voters[msg.sender].hasVoted);\r\n        require(!voters[msg.sender]);\r\n\r\n        // require that they haven't voted before\r\n        // require(voters[msg.sender].voterAddress != address(0));\r\n\r\n        // require that they voted in allowed time\r\n        // require(Date(countDownDate) <= Date().getTime());\r\n\r\n        // require a valid candidate\r\n        require(_candidateId > 0 && _candidateId <= candidatesCount);\r\n\r\n        // record that voter has voted\r\n        // voters[msg.sender].hasVoted = true;\r\n        voters[msg.sender] = true;\r\n\r\n        // update candidate vote Count\r\n        candidates[_candidateId].voteCount ++;\r\n\r\n        // pay with ERC20 token\r\n        // address to = msg.sender;\r\n        // token.transferFrom(address(this), to, 100);\r\n\r\n        // trigger voted event\r\n        emit votedEvent(_candidateId);\r\n    }\r\n\r\n    function addVoter(address addr) private {\r\n        // voters[addr].hasVoted = false;\r\n        voters[addr] = false;\r\n    }\r\n}",
  "sourcePath": "C:\\Dev\\blockChain-election\\contracts\\Election.sol",
  "compiler": {
    "name": "solc",
    "version": "0.5.16+commit.9c3226ce.Emscripten.clang"
  },
  "schemaVersion": "3.0.23",
  "updatedAt": "2020-04-12T14:52:37.650Z",
  "networkType": "ethereum",
  "devdoc": {
    "methods": {}
  },
  "userdoc": {
    "methods": {}
  }
}