{
  "contractName": "Election",
  "abi": [
    {
      "inputs": [],
      "payable": false,
      "stateMutability": "nonpayable",
      "type": "constructor"
    },
    {
      "anonymous": false,
      "inputs": [
        {
          "indexed": true,
          "internalType": "uint256",
          "name": "_candidateId",
          "type": "uint256"
        }
      ],
      "name": "votedEvent",
      "type": "event"
    },
    {
      "constant": true,
      "inputs": [
        {
          "internalType": "uint256",
          "name": "",
          "type": "uint256"
        }
      ],
      "name": "addressLUT",
      "outputs": [
        {
          "internalType": "address",
          "name": "",
          "type": "address"
        }
      ],
      "payable": false,
      "stateMutability": "view",
      "type": "function"
    },
    {
      "constant": true,
      "inputs": [
        {
          "internalType": "uint256",
          "name": "",
          "type": "uint256"
        }
      ],
      "name": "candidates",
      "outputs": [
        {
          "internalType": "uint256",
          "name": "id",
          "type": "uint256"
        },
        {
          "internalType": "string",
          "name": "name",
          "type": "string"
        },
        {
          "internalType": "uint256",
          "name": "voteCount",
          "type": "uint256"
        }
      ],
      "payable": false,
      "stateMutability": "view",
      "type": "function"
    },
    {
      "constant": true,
      "inputs": [],
      "name": "candidatesCount",
      "outputs": [
        {
          "internalType": "uint256",
          "name": "",
          "type": "uint256"
        }
      ],
      "payable": false,
      "stateMutability": "view",
      "type": "function"
    },
    {
      "constant": true,
      "inputs": [
        {
          "internalType": "uint256",
          "name": "",
          "type": "uint256"
        }
      ],
      "name": "questionaryCounters",
      "outputs": [
        {
          "internalType": "int256",
          "name": "",
          "type": "int256"
        }
      ],
      "payable": false,
      "stateMutability": "view",
      "type": "function"
    },
    {
      "constant": true,
      "inputs": [],
      "name": "token",
      "outputs": [
        {
          "internalType": "contract ElectionToken",
          "name": "",
          "type": "address"
        }
      ],
      "payable": false,
      "stateMutability": "view",
      "type": "function"
    },
    {
      "constant": true,
      "inputs": [
        {
          "internalType": "address",
          "name": "",
          "type": "address"
        }
      ],
      "name": "voters",
      "outputs": [
        {
          "internalType": "bool",
          "name": "",
          "type": "bool"
        }
      ],
      "payable": false,
      "stateMutability": "view",
      "type": "function"
    },
    {
      "constant": false,
      "inputs": [
        {
          "internalType": "string",
          "name": "_name",
          "type": "string"
        }
      ],
      "name": "addCandidate",
      "outputs": [
        {
          "internalType": "bool",
          "name": "",
          "type": "bool"
        }
      ],
      "payable": false,
      "stateMutability": "nonpayable",
      "type": "function"
    },
    {
      "constant": false,
      "inputs": [
        {
          "internalType": "uint256",
          "name": "_candidateId",
          "type": "uint256"
        }
      ],
      "name": "vote",
      "outputs": [],
      "payable": false,
      "stateMutability": "nonpayable",
      "type": "function"
    },
    {
      "constant": false,
      "inputs": [],
      "name": "getAddressBook",
      "outputs": [
        {
          "internalType": "address[]",
          "name": "",
          "type": "address[]"
        }
      ],
      "payable": false,
      "stateMutability": "nonpayable",
      "type": "function"
    },
    {
      "constant": false,
      "inputs": [],
      "name": "size",
      "outputs": [
        {
          "internalType": "uint256",
          "name": "",
          "type": "uint256"
        }
      ],
      "payable": false,
      "stateMutability": "nonpayable",
      "type": "function"
    },
    {
      "constant": false,
      "inputs": [
        {
          "internalType": "uint256",
          "name": "counter",
          "type": "uint256"
        }
      ],
      "name": "storeCount",
      "outputs": [],
      "payable": false,
      "stateMutability": "nonpayable",
      "type": "function"
    }
  ],
  "bytecode": "0x60806040526040518060400160405280601481526020017f41707220342c20323032312031353a31373a32350000000000000000000000008152506006908051906020019062000051929190620006ed565b503480156200005f57600080fd5b50620000a66040518060400160405280600481526020017f4269626900000000000000000000000000000000000000000000000000000000815250620005fe60201b60201c565b50620000ed6040518060400160405280600581526020017f47616e747a000000000000000000000000000000000000000000000000000000815250620005fe60201b60201c565b50620001346040518060400160405280600681526020017f42656e6e65740000000000000000000000000000000000000000000000000000815250620005fe60201b60201c565b50620001a160026040518080620012f0602a9139602a019050602060405180830381855afa1580156200016b573d6000803e3d6000fd5b5050506040513d60208110156200018157600080fd5b810190808051906020019092919050505060601c6200068460201b60201c565b6200020d600260405180806200121e602a9139602a019050602060405180830381855afa158015620001d7573d6000803e3d6000fd5b5050506040513d6020811015620001ed57600080fd5b810190808051906020019092919050505060601c6200068460201b60201c565b62000279600260405180806200131a602a9139602a019050602060405180830381855afa15801562000243573d6000803e3d6000fd5b5050506040513d60208110156200025957600080fd5b810190808051906020019092919050505060601c6200068460201b60201c565b620002e56002604051808062001344602a9139602a019050602060405180830381855afa158015620002af573d6000803e3d6000fd5b5050506040513d6020811015620002c557600080fd5b810190808051906020019092919050505060601c6200068460201b60201c565b620003516002604051808062001272602a9139602a019050602060405180830381855afa1580156200031b573d6000803e3d6000fd5b5050506040513d60208110156200033157600080fd5b810190808051906020019092919050505060601c6200068460201b60201c565b620003bd6002604051808062001248602a9139602a019050602060405180830381855afa15801562000387573d6000803e3d6000fd5b5050506040513d60208110156200039d57600080fd5b810190808051906020019092919050505060601c6200068460201b60201c565b6200042960026040518080620012c6602a9139602a019050602060405180830381855afa158015620003f3573d6000803e3d6000fd5b5050506040513d60208110156200040957600080fd5b810190808051906020019092919050505060601c6200068460201b60201c565b62000495600260405180806200129c602a9139602a019050602060405180830381855afa1580156200045f573d6000803e3d6000fd5b5050506040513d60208110156200047557600080fd5b810190808051906020019092919050505060601c6200068460201b60201c565b62000501600260405180806200136e602a9139602a019050602060405180830381855afa158015620004cb573d6000803e3d6000fd5b5050506040513d6020811015620004e157600080fd5b810190808051906020019092919050505060601c6200068460201b60201c565b6200056d60026040518080620011f4602a9139602a019050602060405180830381855afa15801562000537573d6000803e3d6000fd5b5050506040513d60208110156200054d57600080fd5b810190808051906020019092919050505060601c6200068460201b60201c565b604051806101600160405280600060ff168152602001600060ff168152602001600060ff168152602001600060ff168152602001600060ff168152602001600060ff168152602001600060ff168152602001600060ff168152602001600060ff168152602001600060ff168152602001600060ff16815250600090600b620005f792919062000774565b50620008a2565b60006004600081548092919060010191905055506040518060600160405280600454815260200183815260200160008152506003600060045481526020019081526020016000206000820151816000015560208201518160010190805190602001906200066d929190620007cb565b506040820151816002015590505060019050919050565b60028190806001815401808255809150509060018203906000526020600020016000909192909190916101000a81548173ffffffffffffffffffffffffffffffffffffffff021916908373ffffffffffffffffffffffffffffffffffffffff1602179055505050565b828054600181600116156101000203166002900490600052602060002090601f016020900481019282601f106200073057805160ff191683800117855562000761565b8280016001018555821562000761579182015b828111156200076057825182559160200191906001019062000743565b5b50905062000770919062000852565b5090565b828054828255906000526020600020908101928215620007b8579160200282015b82811115620007b7578251829060ff1690559160200191906001019062000795565b5b509050620007c791906200087a565b5090565b828054600181600116156101000203166002900490600052602060002090601f016020900481019282601f106200080e57805160ff19168380011785556200083f565b828001600101855582156200083f579182015b828111156200083e57825182559160200191906001019062000821565b5b5090506200084e919062000852565b5090565b6200087791905b808211156200087357600081600090555060010162000859565b5090565b90565b6200089f91905b808211156200089b57600081600090555060010162000881565b5090565b90565b61094280620008b26000396000f3fe608060405234801561001057600080fd5b50600436106100a95760003560e01c80637f6faa04116100715780637f6faa04146102e1578063949d225d1461030f578063a3ec138d1461032d578063aca4901814610389578063e5757308146103f7578063fc0c546a14610439576100a9565b80630121b93f146100ae5780632d35a8a2146100dc5780633477ee2e146100fa5780633c6e7161146101af578063462e91ec1461020e575b600080fd5b6100da600480360360208110156100c457600080fd5b8101908080359060200190929190505050610483565b005b6100e46105b4565b6040518082815260200191505060405180910390f35b6101266004803603602081101561011057600080fd5b81019080803590602001909291905050506105ba565b6040518084815260200180602001838152602001828103825284818151815260200191508051906020019080838360005b83811015610172578082015181840152602081019050610157565b50505050905090810190601f16801561019f5780820380516001836020036101000a031916815260200191505b5094505050505060405180910390f35b6101b761067c565b6040518080602001828103825283818151815260200191508051906020019060200280838360005b838110156101fa5780820151818401526020810190506101df565b505050509050019250505060405180910390f35b6102c76004803603602081101561022457600080fd5b810190808035906020019064010000000081111561024157600080fd5b82018360208201111561025357600080fd5b8035906020019184600183028401116401000000008311171561027557600080fd5b91908080601f016020809104026020016040519081016040528093929190818152602001838380828437600081840152601f19601f82011690508083019250505050505050919291929050505061070a565b604051808215151515815260200191505060405180910390f35b61030d600480360360208110156102f757600080fd5b810190808035906020019092919050505061078e565b005b6103176107b8565b6040518082815260200191505060405180910390f35b61036f6004803603602081101561034357600080fd5b81019080803573ffffffffffffffffffffffffffffffffffffffff1690602001909291905050506107c5565b604051808215151515815260200191505060405180910390f35b6103b56004803603602081101561039f57600080fd5b81019080803590602001909291905050506107e5565b604051808273ffffffffffffffffffffffffffffffffffffffff1673ffffffffffffffffffffffffffffffffffffffff16815260200191505060405180910390f35b6104236004803603602081101561040d57600080fd5b8101908080359060200190929190505050610821565b6040518082815260200191505060405180910390f35b610441610842565b604051808273ffffffffffffffffffffffffffffffffffffffff1673ffffffffffffffffffffffffffffffffffffffff16815260200191505060405180910390f35b600160003373ffffffffffffffffffffffffffffffffffffffff1673ffffffffffffffffffffffffffffffffffffffff16815260200190815260200160002060009054906101000a900460ff16156104da57600080fd5b42640ed77a987010156104ec57600080fd5b6000811180156104fe57506004548111155b61050757600080fd5b60018060003373ffffffffffffffffffffffffffffffffffffffff1673ffffffffffffffffffffffffffffffffffffffff16815260200190815260200160002060006101000a81548160ff0219169083151502179055506003600082815260200190815260200160002060020160008154809291906001019190505550807ffff3c900d938d21d0990d786e819f29b8d05c1ef587b462b939609625b684b1660405160405180910390a250565b60045481565b6003602052806000526040600020600091509050806000015490806001018054600181600116156101000203166002900480601f01602080910402602001604051908101604052809291908181526020018280546001816001161561010002031660029004801561066c5780601f106106415761010080835404028352916020019161066c565b820191906000526020600020905b81548152906001019060200180831161064f57829003601f168201915b5050505050908060020154905083565b6060600280548060200260200160405190810160405280929190818152602001828054801561070057602002820191906000526020600020905b8160009054906101000a900473ffffffffffffffffffffffffffffffffffffffff1673ffffffffffffffffffffffffffffffffffffffff16815260200190600101908083116106b6575b5050505050905090565b6000600460008154809291906001019190505550604051806060016040528060045481526020018381526020016000815250600360006004548152602001908152602001600020600082015181600001556020820151816001019080519060200190610777929190610868565b506040820151816002015590505060019050919050565b6000818154811061079b57fe5b906000526020600020016000815480929190600101919050555050565b6000600280549050905090565b60016020528060005260406000206000915054906101000a900460ff1681565b600281815481106107f257fe5b906000526020600020016000915054906101000a900473ffffffffffffffffffffffffffffffffffffffff1681565b6000818154811061082e57fe5b906000526020600020016000915090505481565b600560009054906101000a900473ffffffffffffffffffffffffffffffffffffffff1681565b828054600181600116156101000203166002900490600052602060002090601f016020900481019282601f106108a957805160ff19168380011785556108d7565b828001600101855582156108d7579182015b828111156108d65782518255916020019190600101906108bb565b5b5090506108e491906108e8565b5090565b61090a91905b808211156109065760008160009055506001016108ee565b5090565b9056fea265627a7a72315820571a5c14e0fb55f28cae9dd981d7b21102d49efe8721fcb57b4ef579e42800ae64736f6c63430005100032307835363566623435433244323532666137373046336164374234316435616565663246666637303246307836353346353430383844386144304645664339333134303342653732644638423666364446383034307845364243356137324238313438653232414238443335333342624644313237343639356544433739307830333245333534373635416631333539653665633737393037456138413941364538323066323230307833334165344446466466353237343343644638303934324562343365353341366639363744313331307833386141464637353835373265423445306462423137314336653262633136664533393061633230307830346436634531353863343134343032414143383133353536334642334643613336383838323244307831443343346666373065343030433037346663333935433532333543384136614539356235303631307864343434643232344442353339323145373035423630633936326135643832363537364666396535307836353762413430386266653145363137393830386461333741306230343032363932443863653337",
  "source": "pragma  solidity >=0.4.21;\r\nimport \"./ElectionToken.sol\";\r\n\r\ncontract Election {\r\n\r\n    // Model a Candidate\r\n    struct Candidate {\r\n        uint id;\r\n        string name;\r\n        uint voteCount;\r\n    }\r\n\r\n    struct Voter {\r\n        address voterAddress;\r\n        bool hasVoted;\r\n    }\r\n\r\n    int[] public questionaryCounters;\r\n\r\n    // Store accounts that have voted\r\n    mapping(address => bool) public voters;\r\n    address[] public addressLUT;\r\n\r\n    // Store Candidates\r\n    // Fetch Candidate\r\n    mapping(uint => Candidate) public candidates;\r\n    // Store Candidates Count\r\n    uint public candidatesCount;\r\n\r\n    ElectionToken public token;\r\n\r\n    string private countDownDate = \"Apr 4, 2021 15:17:25\";\r\n\r\n    // voted event\r\n    event votedEvent (\r\n        uint indexed _candidateId\r\n    );\r\n\r\n    // Constructor\r\n    constructor () public {\r\n        addCandidate(\"Bibi\");\r\n        addCandidate(\"Gantz\");\r\n        addCandidate(\"Bennet\");\r\n\r\n        addVoter(address(bytes20(sha256(\"0x04d6cE158c414402AAC8135563FB3FCa3688822D\"))));\r\n        addVoter(address(bytes20(sha256(\"0x653F54088D8aD0FEfC931403Be72dF8B6f6DF804\"))));\r\n        addVoter(address(bytes20(sha256(\"0x1D3C4ff70e400C074fc395C5235C8A6aE95b5061\"))));\r\n        addVoter(address(bytes20(sha256(\"0xd444d224DB53921E705B60c962a5d826576Ff9e5\"))));\r\n        addVoter(address(bytes20(sha256(\"0x032E354765Af1359e6ec77907Ea8A9A6E820f220\"))));\r\n        addVoter(address(bytes20(sha256(\"0xE6BC5a72B8148e22AB8D3533BbFD1274695eDC79\"))));\r\n        addVoter(address(bytes20(sha256(\"0x38aAFF758572eB4E0dbB171C6e2bc16fE390ac20\"))));\r\n        addVoter(address(bytes20(sha256(\"0x33Ae4DFFdf52743CdF80942Eb43e53A6f967D131\"))));\r\n        addVoter(address(bytes20(sha256(\"0x657bA408bfe1E6179808da37A0b0402692D8ce37\"))));\r\n        addVoter(address(bytes20(sha256(\"0x565fb45C2D252fa770F3ad7B41d5aeef2Fff702F\"))));\r\n\r\n        // for (uint index = 0; index < questionaryCounters.length; index++) {\r\n        //     storeCount(index);\r\n        // }\r\n        questionaryCounters = [0,0,0,0,0,0,0,0,0,0,0];\r\n\r\n    }\r\n\r\n    function addCandidate (string memory _name) public returns (bool) {\r\n        candidatesCount++;\r\n        candidates[candidatesCount] = Candidate(candidatesCount, _name,0);\r\n        return true;\r\n    }\r\n\r\n    function vote (uint _candidateId) public {\r\n        // require that they haven't voted before\r\n        \r\n        // require(!voters[msg.sender].hasVoted);\r\n        require(!voters[msg.sender]);\r\n\r\n        // require that they haven't voted before\r\n        // require(voters[msg.sender].voterAddress != address(0));\r\n\r\n        // require that they voted in allowed time\r\n\r\n        require(((2021 * 365 * 1 days) + (120 * 1 days) + (15 * 1 hours) ) >= now );\r\n\r\n        // require a valid candidate\r\n        require(_candidateId > 0 && _candidateId <= candidatesCount);\r\n\r\n        // record that voter has voted\r\n        // voters[msg.sender].hasVoted = true;\r\n        voters[msg.sender] = true;\r\n\r\n        // update candidate vote Count\r\n        candidates[_candidateId].voteCount ++;\r\n\r\n        // trigger voted event\r\n        emit votedEvent(_candidateId);\r\n    }\r\n\r\n    function getAddressBook() public returns (address[] memory) {\r\n        return addressLUT;\r\n    }\r\n\r\n    function size() public returns (uint) {\r\n        return addressLUT.length;\r\n    }\r\n\r\n    function addVoter(address addr) private {\r\n        // voters[addr].hasVoted = false;\r\n        // voters[addr] = false;\r\n        // voters[addr] = Voter(addr,false);\r\n        addressLUT.push(addr);\r\n    }\r\n\r\n    function storeCount(uint counter) public {\r\n        questionaryCounters[counter]++;\r\n    }\r\n}",
  "sourcePath": "C:\\Dev\\blockChain-election\\contracts\\Election.sol",
  "compiler": {
    "name": "solc",
    "version": "0.5.16+commit.9c3226ce.Emscripten.clang"
  },
  "schemaVersion": "3.0.23",
  "updatedAt": "2020-04-16T19:53:48.346Z",
  "networkType": "ethereum",
  "devdoc": {
    "methods": {}
  },
  "userdoc": {
    "methods": {}
  }
}