{
  "contractName": "Election",
  "abi": [
    {
      "inputs": [],
      "payable": false,
      "stateMutability": "nonpayable",
      "type": "constructor"
    },
    {
      "anonymous": false,
      "inputs": [
        {
          "indexed": true,
          "internalType": "uint256",
          "name": "_candidateId",
          "type": "uint256"
        }
      ],
      "name": "votedEvent",
      "type": "event"
    },
    {
      "constant": true,
      "inputs": [
        {
          "internalType": "uint256",
          "name": "",
          "type": "uint256"
        }
      ],
      "name": "addressLUT",
      "outputs": [
        {
          "internalType": "address",
          "name": "",
          "type": "address"
        }
      ],
      "payable": false,
      "stateMutability": "view",
      "type": "function"
    },
    {
      "constant": true,
      "inputs": [
        {
          "internalType": "uint256",
          "name": "",
          "type": "uint256"
        }
      ],
      "name": "candidates",
      "outputs": [
        {
          "internalType": "uint256",
          "name": "id",
          "type": "uint256"
        },
        {
          "internalType": "string",
          "name": "name",
          "type": "string"
        },
        {
          "internalType": "uint256",
          "name": "voteCount",
          "type": "uint256"
        }
      ],
      "payable": false,
      "stateMutability": "view",
      "type": "function"
    },
    {
      "constant": true,
      "inputs": [],
      "name": "candidatesCount",
      "outputs": [
        {
          "internalType": "uint256",
          "name": "",
          "type": "uint256"
        }
      ],
      "payable": false,
      "stateMutability": "view",
      "type": "function"
    },
    {
      "constant": true,
      "inputs": [],
      "name": "token",
      "outputs": [
        {
          "internalType": "contract ElectionToken",
          "name": "",
          "type": "address"
        }
      ],
      "payable": false,
      "stateMutability": "view",
      "type": "function"
    },
    {
      "constant": true,
      "inputs": [
        {
          "internalType": "address",
          "name": "",
          "type": "address"
        }
      ],
      "name": "voters",
      "outputs": [
        {
          "internalType": "bool",
          "name": "",
          "type": "bool"
        }
      ],
      "payable": false,
      "stateMutability": "view",
      "type": "function"
    },
    {
      "constant": false,
      "inputs": [
        {
          "internalType": "string",
          "name": "_name",
          "type": "string"
        }
      ],
      "name": "addCandidate",
      "outputs": [
        {
          "internalType": "bool",
          "name": "",
          "type": "bool"
        }
      ],
      "payable": false,
      "stateMutability": "nonpayable",
      "type": "function"
    },
    {
      "constant": false,
      "inputs": [
        {
          "internalType": "uint256",
          "name": "_candidateId",
          "type": "uint256"
        }
      ],
      "name": "vote",
      "outputs": [],
      "payable": false,
      "stateMutability": "nonpayable",
      "type": "function"
    },
    {
      "constant": false,
      "inputs": [],
      "name": "getAddressBook",
      "outputs": [
        {
          "internalType": "address[]",
          "name": "",
          "type": "address[]"
        }
      ],
      "payable": false,
      "stateMutability": "nonpayable",
      "type": "function"
    },
    {
      "constant": false,
      "inputs": [],
      "name": "size",
      "outputs": [
        {
          "internalType": "uint256",
          "name": "",
          "type": "uint256"
        }
      ],
      "payable": false,
      "stateMutability": "nonpayable",
      "type": "function"
    }
  ],
  "bytecode": "0x60806040526040518060400160405280601481526020017f41707220342c20323032312031353a31373a323500000000000000000000000081525060059080519060200190620000519291906200039c565b503480156200005f57600080fd5b50620000a66040518060400160405280600481526020017f4269626900000000000000000000000000000000000000000000000000000000815250620002ad60201b60201c565b50620000ed6040518060400160405280600581526020017f47616e747a000000000000000000000000000000000000000000000000000000815250620002ad60201b60201c565b50620001346040518060400160405280600681526020017f42656e6e65740000000000000000000000000000000000000000000000000000815250620002ad60201b60201c565b506200015a7304d6ce158c414402aac8135563fb3fca3688822d6200033360201b60201c565b6200017f73653f54088d8ad0fefc931403be72df8b6f6df8046200033360201b60201c565b620001a4731d3c4ff70e400c074fc395c5235c8a6ae95b50616200033360201b60201c565b620001c973d444d224db53921e705b60c962a5d826576ff9e56200033360201b60201c565b620001ee73032e354765af1359e6ec77907ea8a9a6e820f2206200033360201b60201c565b6200021373e6bc5a72b8148e22ab8d3533bbfd1274695edc796200033360201b60201c565b620002387338aaff758572eb4e0dbb171c6e2bc16fe390ac206200033360201b60201c565b6200025d7333ae4dffdf52743cdf80942eb43e53a6f967d1316200033360201b60201c565b6200028273657ba408bfe1e6179808da37a0b0402692d8ce376200033360201b60201c565b620002a773565fb45c2d252fa770f3ad7b41d5aeef2fff702f6200033360201b60201c565b620004d2565b60006003600081548092919060010191905055506040518060600160405280600354815260200183815260200160008152506002600060035481526020019081526020016000206000820151816000015560208201518160010190805190602001906200031c92919062000423565b506040820151816002015590505060019050919050565b60018190806001815401808255809150509060018203906000526020600020016000909192909190916101000a81548173ffffffffffffffffffffffffffffffffffffffff021916908373ffffffffffffffffffffffffffffffffffffffff1602179055505050565b828054600181600116156101000203166002900490600052602060002090601f016020900481019282601f10620003df57805160ff191683800117855562000410565b8280016001018555821562000410579182015b828111156200040f578251825591602001919060010190620003f2565b5b5090506200041f9190620004aa565b5090565b828054600181600116156101000203166002900490600052602060002090601f016020900481019282601f106200046657805160ff191683800117855562000497565b8280016001018555821562000497579182015b828111156200049657825182559160200191906001019062000479565b5b509050620004a69190620004aa565b5090565b620004cf91905b80821115620004cb576000816000905550600101620004b1565b5090565b90565b61087080620004e26000396000f3fe608060405234801561001057600080fd5b50600436106100935760003560e01c8063462e91ec11610066578063462e91ec146101f8578063949d225d146102cb578063a3ec138d146102e9578063aca4901814610345578063fc0c546a146103b357610093565b80630121b93f146100985780632d35a8a2146100c65780633477ee2e146100e45780633c6e716114610199575b600080fd5b6100c4600480360360208110156100ae57600080fd5b81019080803590602001909291905050506103fd565b005b6100ce61052d565b6040518082815260200191505060405180910390f35b610110600480360360208110156100fa57600080fd5b8101908080359060200190929190505050610533565b6040518084815260200180602001838152602001828103825284818151815260200191508051906020019080838360005b8381101561015c578082015181840152602081019050610141565b50505050905090810190601f1680156101895780820380516001836020036101000a031916815260200191505b5094505050505060405180910390f35b6101a16105f5565b6040518080602001828103825283818151815260200191508051906020019060200280838360005b838110156101e45780820151818401526020810190506101c9565b505050509050019250505060405180910390f35b6102b16004803603602081101561020e57600080fd5b810190808035906020019064010000000081111561022b57600080fd5b82018360208201111561023d57600080fd5b8035906020019184600183028401116401000000008311171561025f57600080fd5b91908080601f016020809104026020016040519081016040528093929190818152602001838380828437600081840152601f19601f820116905080830192505050505050509192919290505050610683565b604051808215151515815260200191505060405180910390f35b6102d3610707565b6040518082815260200191505060405180910390f35b61032b600480360360208110156102ff57600080fd5b81019080803573ffffffffffffffffffffffffffffffffffffffff169060200190929190505050610714565b604051808215151515815260200191505060405180910390f35b6103716004803603602081101561035b57600080fd5b8101908080359060200190929190505050610734565b604051808273ffffffffffffffffffffffffffffffffffffffff1673ffffffffffffffffffffffffffffffffffffffff16815260200191505060405180910390f35b6103bb610770565b604051808273ffffffffffffffffffffffffffffffffffffffff1673ffffffffffffffffffffffffffffffffffffffff16815260200191505060405180910390f35b6000803373ffffffffffffffffffffffffffffffffffffffff1673ffffffffffffffffffffffffffffffffffffffff16815260200190815260200160002060009054906101000a900460ff161561045357600080fd5b42640ed77a9870101561046557600080fd5b60008111801561047757506003548111155b61048057600080fd5b60016000803373ffffffffffffffffffffffffffffffffffffffff1673ffffffffffffffffffffffffffffffffffffffff16815260200190815260200160002060006101000a81548160ff0219169083151502179055506002600082815260200190815260200160002060020160008154809291906001019190505550807ffff3c900d938d21d0990d786e819f29b8d05c1ef587b462b939609625b684b1660405160405180910390a250565b60035481565b6002602052806000526040600020600091509050806000015490806001018054600181600116156101000203166002900480601f0160208091040260200160405190810160405280929190818152602001828054600181600116156101000203166002900480156105e55780601f106105ba576101008083540402835291602001916105e5565b820191906000526020600020905b8154815290600101906020018083116105c857829003601f168201915b5050505050908060020154905083565b6060600180548060200260200160405190810160405280929190818152602001828054801561067957602002820191906000526020600020905b8160009054906101000a900473ffffffffffffffffffffffffffffffffffffffff1673ffffffffffffffffffffffffffffffffffffffff168152602001906001019080831161062f575b5050505050905090565b60006003600081548092919060010191905055506040518060600160405280600354815260200183815260200160008152506002600060035481526020019081526020016000206000820151816000015560208201518160010190805190602001906106f0929190610796565b506040820151816002015590505060019050919050565b6000600180549050905090565b60006020528060005260406000206000915054906101000a900460ff1681565b6001818154811061074157fe5b906000526020600020016000915054906101000a900473ffffffffffffffffffffffffffffffffffffffff1681565b600460009054906101000a900473ffffffffffffffffffffffffffffffffffffffff1681565b828054600181600116156101000203166002900490600052602060002090601f016020900481019282601f106107d757805160ff1916838001178555610805565b82800160010185558215610805579182015b828111156108045782518255916020019190600101906107e9565b5b5090506108129190610816565b5090565b61083891905b8082111561083457600081600090555060010161081c565b5090565b9056fea265627a7a72315820b854c3a251144b5e20dfc28326edf3e02d0155ec47b7f50ff2d2d1141dfeb5e064736f6c63430005100032",
  "source": "pragma  solidity >=0.4.21;\r\nimport \"./ElectionToken.sol\";\r\n\r\ncontract Election {\r\n\r\n    // Model a Candidate\r\n    struct Candidate {\r\n        uint id;\r\n        string name;\r\n        uint voteCount;\r\n    }\r\n\r\n    struct Voter {\r\n        address voterAddress;\r\n        bool hasVoted;\r\n    }\r\n\r\n    // Store accounts that have voted\r\n    mapping(address => bool) public voters;\r\n    address[] public addressLUT;\r\n\r\n    // Store Candidates\r\n    // Fetch Candidate\r\n    mapping(uint => Candidate) public candidates;\r\n    // Store Candidates Count\r\n    uint public candidatesCount;\r\n\r\n    ElectionToken public token;\r\n\r\n    string private countDownDate = \"Apr 4, 2021 15:17:25\";\r\n\r\n    // voted event\r\n    event votedEvent (\r\n        uint indexed _candidateId\r\n    );\r\n\r\n    // Constructor\r\n    constructor () public {\r\n        addCandidate(\"Bibi\");\r\n        addCandidate(\"Gantz\");\r\n        addCandidate(\"Bennet\");\r\n\r\n        addVoter(address(0x04d6cE158c414402AAC8135563FB3FCa3688822D));\r\n        addVoter(address(0x653F54088D8aD0FEfC931403Be72dF8B6f6DF804));\r\n        addVoter(address(0x1D3C4ff70e400C074fc395C5235C8A6aE95b5061));\r\n        addVoter(address(0xd444d224DB53921E705B60c962a5d826576Ff9e5));\r\n        addVoter(address(0x032E354765Af1359e6ec77907Ea8A9A6E820f220));\r\n        addVoter(address(0xE6BC5a72B8148e22AB8D3533BbFD1274695eDC79));\r\n        addVoter(address(0x38aAFF758572eB4E0dbB171C6e2bc16fE390ac20));\r\n        addVoter(address(0x33Ae4DFFdf52743CdF80942Eb43e53A6f967D131));\r\n        addVoter(address(0x657bA408bfe1E6179808da37A0b0402692D8ce37));\r\n        addVoter(address(0x565fb45C2D252fa770F3ad7B41d5aeef2Fff702F));\r\n    }\r\n\r\n    function addCandidate (string memory _name) public returns (bool) {\r\n        candidatesCount++;\r\n        candidates[candidatesCount] = Candidate(candidatesCount, _name,0);\r\n        return true;\r\n    }\r\n\r\n    function vote (uint _candidateId) public {\r\n        // require that they haven't voted before\r\n        \r\n        // require(!voters[msg.sender].hasVoted);\r\n        require(!voters[msg.sender]);\r\n\r\n        // require that they haven't voted before\r\n        // require(voters[msg.sender].voterAddress != address(0));\r\n\r\n        // require that they voted in allowed time\r\n\r\n        require(((2021 * 365 * 1 days) + (120 * 1 days) + (15 * 1 hours) ) >= now );\r\n\r\n        // require a valid candidate\r\n        require(_candidateId > 0 && _candidateId <= candidatesCount);\r\n\r\n        // record that voter has voted\r\n        // voters[msg.sender].hasVoted = true;\r\n        voters[msg.sender] = true;\r\n\r\n        // update candidate vote Count\r\n        candidates[_candidateId].voteCount ++;\r\n\r\n        // trigger voted event\r\n        emit votedEvent(_candidateId);\r\n    }\r\n\r\n    function getAddressBook() public returns (address[] memory) {\r\n        return addressLUT;\r\n    }\r\n\r\n    function size() public returns (uint) {\r\n        return addressLUT.length;\r\n    }\r\n\r\n    function addVoter(address addr) private {\r\n        // voters[addr].hasVoted = false;\r\n        // voters[addr] = false;\r\n        // voters[addr] = Voter(addr,false);\r\n        addressLUT.push(addr);\r\n    }\r\n}",
  "sourcePath": "C:\\Dev\\blockChain-election\\contracts\\Election.sol",
  "compiler": {
    "name": "solc",
    "version": "0.5.16+commit.9c3226ce.Emscripten.clang"
  },
  "schemaVersion": "3.0.23",
  "updatedAt": "2020-04-14T00:27:51.891Z",
  "networkType": "ethereum",
  "devdoc": {
    "methods": {}
  },
  "userdoc": {
    "methods": {}
  }
}